:100000000C942A000C9447000C9447000C94470071
:100010000C9447000C9447000C9447000C94E900A2
:100020000C9447000C9447000C9447000C949300E8
:100030000C9447000C9447000C9447000C94470024
:100040000C9447000C9447000C9447000C94470014
:100050000C94470011241FBECFE5D8E0DEBFCDBF12
:1000600010E0A0E6B0E0E6E7F4E002C005900D92F3
:10007000A638B107D9F720E0A6E8B0E001C01D928C
:10008000A739B207E1F70E94FE000C9439020C94E4
:10009000000090E080E061E070E09B01082E01C06C
:1000A000220F0A94EAF7209525BBEFE9FFE031978C
:1000B000F1F700C0000050E040E023B330E02095AD
:1000C0003095FA01349602C035952795EA95E2F706
:1000D00020FF0BC0FC01EE0FFF1FEE0FFF1FEB58C0
:1000E000FF4FE40FF51F808108954F5F5F4F44304D
:1000F000510519F701968430910579F683E6089544
:100100000E9449008336E1F70895E62FF0E0EC59AC
:10011000FF4F90819BBBE82FF0E0E05AFF4F8081BA
:10012000809582BB08951F920F920FB60F921124F3
:100130002F933F934F935F936F937F938F939F93EF
:10014000AF93BF93CF93EF93FF93C09196008091AD
:1001500093008230A1F48091880090918900C23090
:10016000C0F080918A0090918B00C230A1F02AE00B
:1001700030E0B9010E942502CB01B9010EC0809187
:10018000900090919100C23080F780918E00909104
:100190008F00C111ECCF6AE070E00E942502682F49
:1001A0008C2F0E948500CF5FC370C0939600FF9193
:1001B000EF91CF91BF91AF919F918F917F916F916F
:1001C0005F914F913F912F910F900FBE0F901F9015
:1001D00018951F921FB61F9211248F939F9381E051
:1001E0008093950090919400911180E08093940009
:1001F0009F918F911F901FBE1F9018958FEF8ABB04
:100200009FE091BB94BB85BB87B38F6087BB88B3EE
:100210008F6088BB84E083BF89B7816089BF8DE030
:100220008EBD88E09DE39BBD8ABD89B7806189BF93
:100230007894FF24F39482E0E82E0CE310E0C8E108
:10024000D0E00E944900809392009091860099230B
:1002500031F08336E1F0109286000E948000809198
:1002600092008C3041F4809193008111ADC0F092E6
:1002700093000E948000809192008D3041F4809123
:1002800093008111ABC0E09293000E9480008091A6
:100290009300813021F5809192008A3071F4809131
:1002A0009000909191000196BE010E9425029093CA
:1002B0009100809390000E948000809192008B308A
:1002C00071F480918E0090918F000196B8010E9488
:1002D000250290938F0080938E000E948000809171
:1002E0009300823021F5809192008A3071F48091E0
:1002F0008A0090918B000196BE010E942502909386
:100300008B0080938A000E948000809192008B3045
:1003100071F480918800909189000196B8010E9443
:10032000250290938900809388000E94800080912C
:1003300095008823A9F180918C0090918D00019601
:100340008C33910508F052C090938D0080938C00FF
:1003500080918700882311F18091860081111EC051
:10036000209190003091910080918A0090918B00B3
:100370002817390799F420918E0030918F008091D1
:100380008800909189002817390741F480918C00EA
:1003900090918D00892B11F4F092860010929500B7
:1003A00080919400882309F443C087E090918600EF
:1003B000992309F43FC09091940091118E7F98B3D6
:1003C000907F892B88BB3DCF813009F052CF1092AE
:1003D000930010928D0010928C004BCF823009F068
:1003E00054CF10929300F09287004FCF10928D005F
:1003F00010928C0080918E0090918F0001968C332A
:10040000910528F490938F0080938E00A1CF1092D5
:100410008F0010928E008091900090919100019633
:10042000BE010E942502909391008093900090CF8E
:100430008FE0BCCF90919300913011F48B7FBFCFB0
:10044000923009F0BCCF8D7FBACFAA1BBB1B51E104
:1004500007C0AA1FBB1FA617B70710F0A61BB70B34
:10046000881F991F5A95A9F780959095BC01CD01D9
:060470000895F894FFCF8F
:1004760001020408C0F9A4B0999282D880988883B2
:10048600A7B1868EFF0104070E02050800030609C0
:060496000F0A0B0C0D0023
:00000001FF
